:020000040000FA
:06000000BAEF05F012004A
:020006001200E6
:0600080024EF04F01200D9
:02000E000100EF
:0C001000A00B0000600000001A000000BF
:04001C00D9CFE6FF53
:10002000E1CFD9FFFD0EDBCF10F0DB06FE0EDBCFFC
:1000300011F001E2DB061050111001E0F3D7E55298
:10004000E7CFD9FF12008B80640EE66EE66AE6DF2A
:10005000E552E5528B90640EE66EE66ADFDFE5520C
:10006000E5521200D9CFE6FFE1CFD9FFFE0EDB50FB
:10007000010BE8B08980E8A08990FE0EDB407F0B81
:10008000010BE8B08982E8A08992FE0EDB40E840CF
:100090003F0B010BE8B08984E8A08994FE0EDB4099
:1000A000E840E8401F0B010BE8B08986E8A089967C
:1000B000CADFE552E7CFD9FF1200D9CFE6FFE1CF83
:1000C000D9FF8B94FE0EDB380F0BE66ECBDFE552CB
:1000D000FE0EDBCFE6FFC6DFE552E552E7CFD9FFE4
:1000E0001200D9CFE6FFE1CFD9FF8B84FE0EDB38BB
:1000F0000F0BE66EB7DFE552FE0EDBCFE6FFB2DF99
:10010000E552E552E7CFD9FF12009590959495926C
:100110009598959A959C959E8B92320EE66ECDDFC2
:10012000E552640EE66EE66A79DFE552E552280E86
:10013000E66EC3DFE5520C0EE66EBFDFE552060E3B
:10014000E66EBBDFE552010EE66EB7DFE552120048
:10015000D9CFE6FFE1CFD9FFFD0EDBCFE9FFFE0EE1
:10016000DBCFEAFFEF500EE0FD0EDBCFE9FFDB2A2D
:10017000FE0EDBCFEAFF01E3DB2AEF50E66EB1DFD4
:10018000E552EAD7E552E7CFD9FF1200010EE66E3D
:1001900094DFE552640EE66EE66A40DFE552E55212
:1001A0001200D9CFE6FFE1CFD9FF050EE126FD0E03
:1001B000DBCF10F0FE0EDBCF11F00A0E0D6E0E6AD3
:1001C00010C008F011C009F094EC05F004C010F064
:1001D00005C011F01050DF6E0A0E106E116AFD0E90
:1001E000DBCF08F0FE0EDBCF09F010C00DF011C020
:1001F0000EF094EC05F0FD0E08C0DBFFFE0E09C00A
:10020000DBFFFD0EDBCF10F0FE0EDBCF11F00A0E90
:100210000D6E0E6A10C008F011C009F094EC05F0E4
:1002200004C010F005C011F0010E10C0DBFF0A0E73
:10023000106E116AFD0EDBCF08F0FE0EDBCF09F069
:1002400010C00DF011C00EF094EC05F0FD0E08C0CA
:10025000DBFFFE0E09C0DBFFFD0EDBCF10F0FE0E54
:10026000DBCF11F00A0E0D6E0E6A10C008F011C03F
:1002700009F094EC05F004C010F005C011F0020E76
:1002800010C0DBFFDB50300FE66E2BDFE552010EB6
:10029000DB50300FE66E25DFE552300EDF24E66ED0
:1002A00020DFE552050EE15C02E2E16AE552E16E13
:1002B000E552E7CFD9FF1200D9CFE6FFE1CFD9FF52
:1002C0000E0EE126FD0EDBCFE9FFFE0EDBCFEAFFCF
:1002D000EFCFDFFF010EE76EFD0EDBCFE9FFFE0E75
:1002E000DBCFEAFFE750E926000EEA22010EEFCF4E
:1002F000DBFF020EE76EFD0EDBCFE9FFFE0EDBCF6C
:10030000EAFFE750E926000EEA22020EEFCFDBFFFC
:100310000C0EDB6A0D0EDB6A0C0EDBCF10F00D0E3F
:10032000DBCF11F0010EDBCF12F0136A12BE13689F
:1003300011501318E8AE02D0133404D01250105CE0
:10034000135011582AE20C0EDBCF12F00D0EDBCF4A
:1003500013F0030E1226000E1322FD0EDB501224A2
:10036000E96EFE0EDB501320EA6EEF50E66ED950B8
:10037000030F106EDACF11F00C0EDB501024E96E73
:100380000D0EDB501120EA6EE552E750EF6E0C0EB9
:10039000DB2A0D0E01E3DB2ABFD7D9CFE9FFDACF85
:1003A000EAFFEECF10F0EECF11F0EECF12F0EECF6D
:1003B00013F0EECF14F0EECF15F0EECF16F0EECF37
:1003C00017F0EECF18F0EECF19F0EECF1AF0EFCF16
:1003D0001BF0D9CFE9FFDACFEAFFED50ED501BC09B
:1003E000EDFF1AC0EDFF19C0EDFF18C0EDFF17C0FB
:1003F000EDFF16C0EDFF15C0EDFF14C0EDFF13C0FB
:10040000EDFF12C0EDFF11C0EDFF10C0EFFF0E0EAB
:10041000E15C03E200D0E16AE552E16EE552E7CF2C
:10042000D9FF1200D9CFE6FFE1CFD9FF020EE126B6
:10043000DE6ADD6ADECF10F0DDCF11F0D89011500A
:1004400004E6080E105C000E115824E2DECFE9FF2E
:10045000DDCFEAFFD890E936EA36600EE926000ED5
:10046000EA22EECFE6FFEFCFE6FF72EC05F0E552B1
:10047000E552E66EDECFE9FFDDCFEAFF700EE9263A
:10048000000EEA22E552E750EF6EDF2A010E01E38B
:10049000DB2AD0D7020EE15C02E2E16AE552E16EAE
:1004A000E552E7CFD9FF1200D9CFE6FFE1CFD9FF60
:1004B000AC8AACA2FED7FE0EDB50AD6EE552E7CFA4
:1004C000D9FF1200AC50020B01E0010E00D0120067
:1004D000D9CFE6FFE1CFD9FF020EE126DE6ADD6A61
:1004E000FD0EDBCF10F0FE0EDBCF11F0DE5010243E
:1004F000E96EDD501120EA6EEF5015E0FD0EDBCF06
:1005000010F0FE0EDBCF11F0DE501024E96EDD504E
:100510001120EA6EEF50E66EC7DFE552DF2A010ECA
:1005200001E3DB2ADDD7020EE15C02E2E16AE5527B
:10053000E16EE552E7CFD9FF1200949C948EB88605
:10054000AC94010EB06E380EAF6EAC98AB8EB8980E
:100550009D8A9D88AB9CAB88D08EF28EF28C9F8A50
:100560009F88AC9C1200D9CFE6FFE1CFD9FF040EE3
:10057000E126080E106E116AFD0EDBCF08F0FE0EAC
:10058000DBCF09F010C00DF011C00EF04CEC05F0FF
:1005900008C0DEFF09C0DDFFFD0EDBCF10F0FE0E50
:1005A000DBCF11F0080E0D6E0E6A10C008F011C0FE
:1005B00009F04CEC05F004C010F005C011F0020E7B
:1005C00010C0DBFF030E11C0DBFFFB0EDBCF08F01A
:1005D000FC0EDBCF09F0010E081801E109502BE0F9
:1005E000085001E1095001E04BD0800EDF5206E0D7
:1005F000DFCFF3FFE8327F0BF306FCE1E81C106E5F
:10060000020EDBCFE9FF030EDBCFEAFF700EE92617
:10061000000EEA22EF501014E66E020EDBCFE9FF67
:10062000030EDBCFEAFF700EE926000EEA22E55248
:10063000E750EF6E25D0800EDF5206E0DFCFF3FFEC
:10064000E8327F0BF306FCE1106E020EDBCFE9FF10
:10065000030EDBCFEAFF700EE926000EEA22EF5010
:100660001010E66E020EDBCFE9FF030EDBCFEAFFD0
:10067000700EE926000EEA22E552E750EF6E00D038
:10068000020EDBCFE9FF030EDBCFEAFF700EE92697
:10069000000EEA22EF50E66E020EDBCFE9FF030EFA
:1006A000DBCFEAFFD890E936EA36600EE926000E85
:1006B000EA22EECFE6FFEFCFE6FF19EC05F0E552B8
:1006C000E552E552040EE15C02E2E16AE552E16EB8
:1006D000E552E7CFD9FF1200D9CFE6FFE1CFD9FF2E
:1006E000020EE126956A936A946A926A0EDD25DF0E
:1006F00099DE200EE66EF5DCE5526D0EE66ED4DE78
:10070000E552DE6ADD6ADECF10F0DDCF11F0D89061
:10071000115004E6080E105C000E11581FE2010E85
:10072000DF5206E0DFCFF3FFE846FE0BF306FCE105
:10073000836EDECFE9FFDDCFEAFF700EE926000E03
:10074000EA22EF50816EDF2A010E01E3DB2A640EFC
:10075000E66EE66A63DCE552E552D5D7CED7020EE7
:10076000E15C02E2E16AE552E16EE552E7CFD9FFD2
:100770001200D9CFE6FFE1CFD9FF040EE1260A0E21
:10078000E126FD0EDBCFE6FFFE0EDBCFE6FF94DDBC
:10079000EECF7BF0EECF7CF0EECF7DF0EECF7EF0B3
:1007A000EECF7FF0EECF80F0EECF81F0EECF82F093
:1007B000EECF83F0EECF84F0EECF85F0EECF86F073
:1007C000106E0C0EE15E10507BC087F000017D5171
:1007D000030A2FE0010A2CE0030A01E02BD07EC0BF
:1007E00010F0116A10BE116810C0DEFF11C0DDFFED
:1007F0007F5108E1010EF36E020EF3CFDBFF030E13
:10080000DB6A06D07F0504E1020EDB6A030EDB6AB9
:10081000020EDBCFE6FF030EDBCFE6FFDECFE6FF07
:10082000DDCFE6FFA0DEE552E552E552E55202D00B
:1008300001D000D0040EE15C02E2E16AE552E16E13
:10084000E552E7CFD9FF1200DACFE4FFE2CFDAFFBB
:10085000E9CFE4FFEACFE4FFF6CFE4FFF7CFE4FF10
:10086000F5CFE4FFF3CFE4FFF4CFE4FFFACFE4FFEA
:1008700000EE00F0100EE80403E3EECFE4FFFBD738
:1008800000EE10F00C0EE80403E3EECFE4FFFBD71C
:10089000E652D9CFE6FFE1CFD9FFE6529EAA42D079
:1008A00000017851791101E171DC7A0E000178259F
:1008B000E96E000E7921EA6EAECFEFFF782B000EC5
:1008C00079234B0E00017A5D1FE178C0E9FF79C002
:1008D000EAFFE906000EEA5A7A0EE926000EEA223D
:1008E000EF507E0810E178C0E6FF79C0E6FF7A0E8F
:1008F000E66E000EE66E3DDFE552E552E552E5524A
:100900000001786B796B03D00001786B796B610E15
:10091000E66ECADDE552900EE66E0B0EE66ED8DD91
:10092000E552E5529EA80ED0ACA2FED7AC9A010EBD
:100930001C6E8250200B01E0010E1C5CE8B0828A24
:10094000E8A0829AE552E552E7CFD9FFE55200EEE2
:100950001BF00C0EE80403E3E5CFEDFFFBD700EE40
:100960000FF0100EE80403E3E5CFEDFFFBD7E5CF72
:10097000FAFFE5CFF4FFE5CFF3FFE5CFF5FFE5CFD5
:10098000F7FFE5CFF6FFE5CFEAFFE5CFE9FFE5CFDB
:04099000DAFF110079
:0C0994000E0EF66E000EF76E000EF86EF0
:1009A00000010900F550986F0900F550996F03E1B7
:1009B000986701D03DD00900F550936F0900F550BC
:1009C000946F0900F550956F09000900F550E96E24
:1009D0000900F550EA6E090009000900F550966F0C
:1009E0000900F550976F09000900F6CF9AF0F7CF8C
:1009F0009BF0F8CF9CF093C0F6FF94C0F7FF95C032
:100A0000F8FF0001965302E1975307E00900F55003
:100A1000EE6E9607F8E29707F9D79AC0F6FF9BC0EB
:100A2000F7FF9CC0F8FF00019807000E995BBFD745
:020A30001200B2
:0E0A3200D9CFE6FFDACFE6FFE1CFD9FFE2CF62
:100A4000DAFFE652DF6AFF0EE76EFC0EDBCF10F036
:100A5000E75010161050A96EFB0EDB50A86EA69E34
:100A6000A69CA684F250800B01E0010EDF6EF29E80
:100A7000550EA76EAA0EA76EA682A6B2FED7DF50AD
:100A8000E8B0F28EE8A0F29EA694E552E552E5CFDA
:080A9000DAFFE7CFD9FF1200E5
:080A9800006A0EAE55EF05F0F7
:100AA0000D6C0E1EE86A0E22001E09AE5DEF05F009
:100AB000086C091EE86A0922001E94EC05F009BEC4
:100AC0006DEF05F000AE000C086C091EE86A092203
:100AD000046C051EE86A0522000C00BE64EF05F0F8
:040AE0000188FF0C7E
:0C0AE400D9CFE6FFDACFE6FFE1CFD9FF63
:100AF000E2CFDAFFFF0EE76EFC0EDBCF10F0FD0E4B
:100B0000DBCF11F0E7501016116A1050A96EA69CA9
:100B1000A69EA68000000000A85000D0E552E5CFB8
:080B2000DAFFE7CFD9FF120054
:080B2800056A046A100EE76E75
:100B3000D89008360936043605360D50045C0E5040
:100B4000055805E30D50045E0E50055A082AE72E9D
:040B5000F0D71200C8
:0C0B5400000EF36E00EE00F0080E01D859
:100B60001200EA6002D0EE6AFCD7F350E96012008E
:040B7000EE6AFCD756
:0C0B740013EE00F023EE00F0F86A019C84
:100B8000CAEC04F003EC00F06CEC03F0FBD71200AD
:100B9000686F616E672076616E2063756F6E6700A7
:100BA0000000010002000300040005000600070029
:0A0BB000FFFFFFFFFFFFFFFF000043
:020000040030CA
:0100000024DB
:010001000EF0
:010002003FBE
:010003001EDE
:010005008179
:010006008178
:010008000FE8
:01000900C036
:01000A000FE6
:01000B00E014
:01000C000FE4
:01000D0040B2
:00000001FF
