:020000040000FA
:0600000075EF02F0120092
:020006000000F8
:08000800D9CFE6FFE1CFD9FFDB
:10001000FD0EDBCF10F0DB06FE0EDBCF11F001E2B0
:10002000DB061050111001E0F3D7E552E7CFD9FFFE
:1000300012008C80640EE66EE66AE6DFE552E55259
:100040008C90640EE66EE66ADFDFE552E552120040
:10005000D9CFE6FFE1CFD9FFFE0EDB50010BE8B0B0
:100060008C88E8A08C98FE0EDB407F0B010BE8B07B
:100070008C8AE8A08C9AFE0EDB40E8403F0B010B17
:10008000E8B08C8CE8A08C9CFE0EDB40E840E84099
:100090001F0B010BE8B08C8EE8A08C9ECADFE552E6
:1000A000E7CFD9FF1200D9CFE6FFE1CFD9FF8C947B
:1000B000FE0EDB380F0BE66ECBDFE552FE0EDBCF1C
:1000C000E6FFC6DFE552E552E7CFD9FF1200D9CFF0
:1000D000E6FFE1CFD9FF8C84FE0EDB380F0BE66E16
:1000E000B7DFE552FE0EDBCFE6FFB2DFE552E552A9
:1000F000E7CFD9FF12009590959495929598959A8F
:10010000959C959E8C92320EE66ECDDFE552640E84
:10011000E66EE66A79DFE552E552280EE66EC3DF49
:10012000E5520C0EE66EBFDFE552060EE66EBBDF53
:10013000E552010EE66EB7DFE5521200D9CFE6FFB9
:10014000E1CFD9FFFD0EDBCFE9FFFE0EDBCFEAFFEB
:10015000EF500EE0FD0EDBCFE9FFDB2AFE0EDBCF1A
:10016000EAFF01E3DB2AEF50E66EB1DFE552EAD7A2
:10017000E552E7CFD9FF1200010EE66E94DFE5529B
:10018000640EE66EE66A40DFE552E5521200D9CF12
:10019000E6FFE1CFD9FF050EE126FD0EDBCF10F023
:1001A000FE0EDBCF11F00A0E0B6E0C6A10C006F0CB
:1001B00011C007F04FEC02F002C010F003C011F0C4
:1001C0001050DF6E0A0E106E116AFD0EDBCF06F0C6
:1001D000FE0EDBCF07F010C00BF011C00CF04FEC9F
:1001E00002F0FD0E06C0DBFFFE0E07C0DBFFFD0EBA
:1001F000DBCF10F0FE0EDBCF11F00A0E0B6E0C6A97
:1002000010C006F011C007F04FEC02F002C010F071
:1002100003C011F0010E10C0DBFF0A0E106E116A50
:10022000FD0EDBCF06F0FE0EDBCF07F010C00BF0AB
:1002300011C00CF04FEC02F0FD0E06C0DBFFFE0E0D
:1002400007C0DBFFFD0EDBCF10F0FE0EDBCF11F0A1
:100250000A0E0B6E0C6A10C006F011C007F04FECCE
:1002600002F002C010F003C011F0020E10C0DBFF5C
:10027000DB50300FE66E2BDFE552010EDB50300F06
:10028000E66E25DFE552300EDF24E66E20DFE55214
:10029000050EE15C02E2E16AE552E16EE552E7CF6C
:1002A000D9FF1200D9CFE6FFE1CFD9FF020EE12638
:1002B000926821DF0D0EE66E070EE66EDD0EE66E2D
:1002C00001EC02F0E552E552E552010EE66EEBDE7E
:1002D000E552060EE66EE7DEE552060EE66EE3DE5A
:1002E000E552870EE66E38EC02F0E55291EC02F032
:1002F0008CEC02F0000901E0FBD783EC02F0F3CFB5
:10030000DEFFF4CFDDFFDECFE6FFDDCFE6FF3FDF30
:10031000E552E552200EE66EDADEE5528F0EE66E0D
:1003200038EC02F0E55291EC02F08CEC02F000099E
:1003300001E0FBD783EC02F0F3CFDEFFF4CFDDFF6B
:10034000DECFE6FFDDCFE6FF22DFE552E552BDD787
:10035000020EE15C02E2E16AE552E16EE552E7CFAE
:04036000D9FF1200AF
:0C036400060EF66E000EF76E000EF86E2E
:1003700000010900F550656F0900F550666F03E153
:10038000656701D03DD00900F550606F0900F55058
:10039000616F0900F550626F09000900F550E96EC0
:1003A0000900F550EA6E090009000900F550636F75
:1003B0000900F550646F09000900F6CF67F0F7CF28
:1003C00068F0F8CF69F060C0F6FF61C0F7FF62C067
:1003D000F8FF0001635302E1645307E00900F550A0
:1003E000EE6E6307F8E26407F9D767C0F6FF68C0EE
:1003F000F7FF69C0F8FF00016507000E665BBFD715
:020400001200E8
:0E040200D9CFE6FFDACFE6FFE1CFD9FFE2CF98
:10041000DAFFC26AC06AFC0EDB407F0B3C0BC26E87
:10042000FC0EDB38F00B300B106EFB0EDB500F0BAD
:100430001010C16EFD0EDB50040DF350380B116E21
:10044000FD0EDB380F0B070B106EFD0EDB50800B23
:1004500010101110C06EFC0EDBAE03D09E9C9D8C64
:10046000F28CC280E552E5CFDAFFE7CFD9FF120068
:10047000D9CFE6FFDACFE6FFE1CFD9FFE2CFDAFF4F
:10048000C30EC214106EFD0EDB407F0B3C0B101030
:0E049000C26EE552E5CFDAFFE7CFD9FF1200CA
:02049E00036AEF
:1004A000026A100EE76ED89006360736023603361B
:1004B0000B50025C0C50035805E30B50025E0C50CD
:0A04C000035A062AE72EF0D71200B7
:0604CA00000EF36E00EECF
:1004D00000F0080E01D81200EA6002D0EE6AFCD7E4
:0A04E000F350E9601200EE6AFCD749
:0604EA0013EE00F023EE0A
:1004F00000F0F86A0F9CB2EC01F093EC02F052ECC1
:0605000001F0FBD7120020
:0A050600C450136E126AC3501210A5
:08051000F36E13C0F4FF1200AA
:08051800C250020B01E0010ECC
:020520001200C7
:04052200C28212007F
:020526001200C1
:020000040030CA
:0100000024DB
:010001000CF2
:010002003FBE
:010003001EDE
:010005008179
:010006008178
:010008000FE8
:01000900C036
:01000A000FE6
:01000B00E014
:01000C000FE4
:01000D0040B2
:00000001FF
