:020000040000FA
:060000000EEF1BF01200E0
:060008007AEF18F012006F
:060018000CEF08F01200DD
:061000000EEF1BF01200D0
:06100800BBEF12F0120024
:06101800C4EF12F012000B
:06102A0001004236000047
:08103000AC0000000A00000002
:08103800D9CFE6FFE1CFD9FF9B
:10104000E652A09A6A6A686A706A020EE66EE66AFA
:10105000E66A710EE66E0F0EE66ECEEC1AF0146EB6
:10106000050EE15E1450160E6F6E9F0E6B6E7B0EBA
:10107000696EDF6ADF50146E156A0C0E145C000E88
:10108000155810E2DF50040DF3CFE9FFF4CFEAFF6B
:10109000000EE926040EEA22EE6AEE6AEE6AEE6AB5
:1010A000DF2AE8D76D8C6E6A6D986D9C68A607D0B4
:1010B00068960001786B7D6B7E6B7F6BF7D70001C4
:1010C000010E916F926F936B946B856BDF6A030EC9
:1010D000DF5C26E2EA6ADF34FE0BEA36E96E6E0E6A
:1010E000E926000EEA22EE6AED6AEA6ADF34FE0BB8
:1010F000EA36E96E680EE926000EEA22EE6AED6A2B
:10110000DF50EA6A890FE96E000EEA22EF6ADF50CB
:10111000EA6A8C0FE96E000EEA22EF6ADF2AD7D75F
:101120000001080E6E6F040E6F6F160E706E0401D4
:10113000300E026F040E036F080E016F840E006FF5
:101140000001616B606BE552E552E7CFD9FF1200F9
:10115000D9CFE6FFE1CFD9FFE6520001605116E199
:1011600006D06D6A696A0001606BA19AB9D06D6A98
:10117000696A160E6F6E9F0E6B6E7B0E696E6DB692
:1011800002D06D86FCD70001010E606F600508E19A
:101190006DBA06D0686A696A69806988020E606FF4
:1011A0006850040B05E06950040B02E06894CBD84A
:1011B0006DA202D0A19A94D06850010B08E069504A
:1011C000010B05E039DF0001040E606F6890685084
:1011D000100B05E06950100B02E0A0D8689868ACCD
:1011E00019D069AC0FD0010EE66EE66A000EE66E0D
:1011F000E66A730EE66EE66A37EC14F0146E060EBD
:10120000E15E1450689C00018F5101E08F078F51FF
:1012100001E165DB6850200B04E06950200B01E020
:1012200064D86850020B13E06950020B10E0010E05
:10123000E66EE66A000EE66EE66AE6687F0EE66E29
:1012400037EC14F0146E060EE15E14506A6A040E58
:101250000001E76E6019E8AE02D0E73402D0E75033
:10126000605D02E2A19A3CD069A639D0DF6A040E23
:10127000DF5C35E268A630D06CCF86F00001865185
:10128000780BE842E842E842876F689686B508D056
:101290008751EA6A8C0FE96E000EEA22EF7007D0E0
:1012A0008751EA6A890FE96E000EEA22EF708751D2
:1012B00002E160D810D0000EE66EE66A860EE66E99
:1012C000000EE66E720EE66EE66A37EC14F0146EEF
:1012D000060EE15E145001D002D0DF2AC8D7A19AD1
:1012E000E552E552E7CFD9FF120070A015D064C0D7
:1012F000E9FF65C0EAFFEF5080080DE16EC0E9FF2D
:101300006FC0EAFFEF50840806E164C0E9FF65C0E2
:10131000EAFF8C0EEF6E7090689A120069846898EC
:101320006D820001010E856F000EE66EE66AE66EC4
:10133000E66A750EE66EE66A37EC14F0146E060E79
:10134000E15E145012000001856B000EE66EE66A45
:10135000E66EE66A740EE66EE66A37EC14F0146E1A
:10136000060EE15E14506D92699468A402D06894F0
:10137000FCD71200D9CFE6FFE1CFD9FFE65200013A
:101380002D0E8F6FFD0E861553E17E0E8615E840FB
:101390007F0B040DF3CF64F0F4CF65F0000E6427EB
:1013A000040E652364C066F065C067F0667564C0AE
:1013B000E9FF65C0EAFFEF503C0BE842E8420D0848
:1013C00035E1DF6A080EDF5C23E264C0E9FF65C037
:1013D000EAFF020EE926000EEA22EE50EFCFEAFF06
:1013E000E96EEF50E66EDF50EA6A300FE96E040EE8
:1013F000EA22E552E750EF6E64C0E9FF65C0EAFFFC
:10140000020EE926000EEA22EE2AEF22DF2ADAD7C0
:1014100064C0E9FF65C0EAFF020EE926000EEA2279
:10142000300EEE6E040EED6E0DD801D03AD805D018
:10143000FD0E8615040801E15AD8E552E552E7CFC2
:10144000D9FF12000001746B906B936B946B886BE7
:10145000756B6EC0E9FF6FC0EAFFEF9E6E756EC0E0
:10146000E9FF6FC0EAFFEF9E6E7566C0E9FF67C0D7
:10147000EAFFEF9E786B796B7A6B7D6B7E6B7F6B8F
:1014800090D8000EE66EE66AE66EE66A030EE66E39
:10149000E66A37EC14F0146E060EE15E1450C1EFEC
:1014A0000DF0020E0001755D03E184EC0EF01ED01C
:1014B000756B88511AE166C0E9FF67C0EAFFEE521A
:1014C000080EEF6E66C0E9FF67C0EAFF020EE9266C
:1014D000000EEA22300EEE6E040EED6E66C0E9FFDD
:1014E00067C0EAFF8C0EEF6E01D0886B1200D9CF77
:1014F000E6FFE1CFD9FFE6526EC0E9FF6FC0EAFF19
:10150000EF50400B01E0010EDF6E00016E75080E1A
:10151000605D09E132C46EFF6E5003E0100E606F33
:1015200002D0040E606F750528E16EC0E9FF6FC040
:10153000EAFF020EE926000EEA22380EEE6E040ED5
:10154000ED6E80DB020E0001745D07E16EC0E9FF05
:101550006FC0EAFF840EEF6E0FD0DF5007E16EC060
:10156000E9FF6FC0EAFFC80EEF6E06D06EC0E9FF5C
:101570006FC0EAFF880EEF6E0FD07DAF0CD08051A8
:10158000811107E005D081C0FAFF00018051F96E9A
:10159000FADF00017D9F756BE552E552E7CFD9FF79
:1015A000120004013051600BE842E842E842E84290
:1015B000E842000901E059D031510C0A55E00B0A0C
:1015C00044E00C0A36E0010A27E00B0A23E0020A95
:1015D00021E0030A1DE0080A11E0010A0CE00F0AED
:1015E00008E0030A01E040D00001788F080E606F28
:1015F0003CD006DA3AD024EC0FF037D00001610E6F
:10160000766F000E776F7881010E796F788F2DD00D
:1016100057DA2BD02BD829D034510001766F776B55
:10162000620E7627000E77237881010E796F788F0E
:101630001CD00001788F04013451EA6A620FE96E10
:10164000000EEA2232C4EFFF10D0000EE66EE66A0A
:10165000E66EE66A020EE66EE66A37EC14F0146E89
:10166000060EE15E145001D000D01200D9CFE6FF83
:10167000E1CFD9FF030EE1260401320510E130511C
:101680001F0B00090CE10001788F030E0401315D8E
:1016900004E10001010E846F02D00001846B04019B
:1016A000325101E012D130511F0B020801E00DD17F
:1016B00034510F0B000901E108D134510F0B02081E
:1016C00001E203D1200E0001605D01E0FED0788FC1
:1016D000040134BF1AD034510F0BE96EEA6AD89076
:1016E000E936EA36680EE926000EEA22EECFDEFF82
:1016F000EDCFDDFF34510F0BEA6A8C0FE96E000E5F
:10170000EA22020EEFCFDBFF19D034510F0BE96E46
:10171000EA6AD890E936EA366E0EE926000EEA2229
:10172000EECFDEFFEDCFDDFF34510F0BEA6A890FFC
:10173000E96E000EEA22020EEFCFDBFFD950020F56
:10174000E96EDACFEAFFEF50010B03E1000EDF9400
:1017500001D0DF8434BF10D034510F0BE96EEA6A38
:10176000D890E936EA36680EE926000EEA22DECF86
:10177000EEFFDDCFEDFF0FD034510F0BE96EEA6ABB
:10178000D890E936EA366E0EE926000EEA22DECF60
:10179000EEFFDDCFEDFF030E315D23E1DECFE9FF8C
:1017A000DDCFEAFFEF50800B13E034BF09D0345196
:1017B0000F0BEA6A8C0FE96E000EEA22EF8208D066
:1017C00034510F0BEA6A890FE96E000EEA22EF82AC
:1017D000840E146EDECFE9FFDDCFEAFF1450EF1266
:1017E00074D0DF74DECFE9FFDDCFEAFFEF50800B6E
:1017F0001BE0DECFE9FFDDCFEAFFEF9EDECFE9FFA2
:10180000DDCFEAFFEF8C020EE66EE66ADECFE6FF82
:10181000DDCFE6FF050EE66EE66A37EC14F0146ED7
:10182000060EE15E145005D0DECFE9FFDDCFEAFF02
:10183000EF8CDF74D950020FE96EDACFEAFFEF5078
:10184000020B0EE1DECFE9FFDDCFEAFFEF50800BA8
:1018500034E0DECFE9FFDDCFEAFFEF50040B2DE1EE
:10186000040134BF09D034510F0BEA6A8C0FE96EC2
:10187000000EEA22EF9208D034510F0BEA6A890F6A
:10188000E96E000EEA22EF923B0E146EDECFE9FF06
:10189000DDCFEAFF1450EF16020EE66EE66ADECFE9
:1018A000E6FFDDCFE6FF050EE66EE66A37EC14F0E4
:1018B000146E060EE15E145008D03B0E146EDECF9F
:1018C000E9FFDDCFEAFF1450EF16030EE15C02E200
:1018D000E16AE552E16EE552E7CFD9FF120000015F
:1018E00091514DE1010E916F925149E1010E926FBC
:1018F000020E755D0DE16EC0E9FF6FC0EAFFEE52AA
:10190000EF6A6EC0E9FF6FC0EAFFC80EEF6E37D016
:10191000750535E1886B64C0E9FF65C0EAFFEE52EA
:10192000080EEF6E64C0E9FF65C0EAFF020EE9260B
:10193000000EEA22300EEE6E040EED6E64C0E9FF7A
:1019400065C0EAFF840EEF6E010E886F66C0E9FF86
:1019500067C0EAFFEE52080EEF6E66C0E9FF67C08F
:10196000EAFF020EE926000EEA22300EEE6E040EA9
:10197000ED6E66C0E9FF67C0EAFF800EEF6E1200F1
:101980000001936B946B020E755D1AE166C0E9FF6E
:1019900067C0EAFFEE52080EEF6E66C0E9FF67C04F
:1019A000EAFF020EE926000EEA22380EEE6E040E61
:1019B000ED6E66C0E9FF67C0EAFFC80EEF6E1FD08C
:1019C00079510401365D00017A510401375904E26E
:1019D00036C479F037C47AF035D96EC0E9FF6FC0EC
:1019E000EAFF020EE926000EEA22380EEE6E040E21
:1019F000ED6E6EC0E9FF6FC0EAFFC80EEF6E120019
:101A0000800E0401305D5BE10001C00E786F0401BF
:101A10003351030A34E0010A0EE0030A03E0000137
:101A2000786B4DD000014E0E766F320E776F120E2E
:101A3000796F7A6B44D03251F66EF76AD890F636E9
:101A4000F736790EF626330EF7220900F5CF76F039
:101A50000A00F5CF77F0020E0001F76A7625F66EE0
:101A60007751F7220800F5CF79F0030EF76A762553
:101A7000F66E7751F7220800F5CF7AF020D0030EEA
:101A8000325D1AE23251F66EF76AD890F636F736C2
:101A90007B0EF626330EF7220900F5CF76F00A000A
:101AA000F5CF77F076C0F6FF77C0F7FF0800F55066
:101AB0000001796F7A6B02D00001786B00D01200C0
:101AC000D9CFE6FFE1CFD9FF020EE1260401386B42
:101AD000396B30511F0B020A12E0030A0DE0010AB4
:101AE00001E03BD00001788F0401388100018405BA
:101AF00002E10401388331D00001788F2ED000013B
:101B0000788F040134BF10D034510F0BE96EEA6AAC
:101B1000D890E936EA36680EE926000EEA22EECFC2
:101B2000DEFFEDCFDDFF0FD034510F0BE96EEA6A17
:101B3000D890E936EA366E0EE926000EEA22EECF9C
:101B4000DEFFEDCFDDFFDECFE9FFDDCFEAFFEF50B7
:101B5000040B02E0010E386F00D0000178AF07D00F
:101B6000380E766F040E776F7881020E796F020E51
:101B7000E15C02E2E16AE552E16EE552E7CFD9FFAE
:101B800012006D98000178BF2BD07DAF09D0020EF6
:101B9000756F945101E1F4DE0001926B916B1FD0DF
:101BA00066C0E9FF67C0EAFFEE52080EEF6E66C03E
:101BB000E9FF67C0EAFF020EE926000EEA22300EB6
:101BC000EE6E040EED6E66C0E9FF67C0EAFF8C0E94
:101BD000EF6E6EC0E9FF6FC0EAFF840EEF6E31D08A
:101BE000040130AF0DD00001010E756F935101E17A
:101BF000C7DE0001926B916B905101E170DE21D044
:101C00000001020E756F66C0E9FF67C0EAFFEE5281
:101C1000080EEF6E66C0E9FF67C0EAFF020EE92614
:101C2000000EEA22300EEE6E040EED6E66C0E9FF85
:101C300067C0EAFF840EEF6E926B916B905101E1E9
:101C40004EDE1200D9CFE6FFE1CFD9FFE652080EF3
:101C5000DF6E0001795D000E7A590BE279C0DFFF7B
:101C6000745103E1010E746F04D0740502E1020E99
:101C7000746FDF50146E156A1450795D796F1550CA
:101C80007A597A6F6EC0E9FF6FC0EAFFEE52DFCF7C
:101C9000EFFF380E826F040E836F78B119D0DF50DA
:101CA00016E076C0F6FF77C0F7FF762B000E77239D
:101CB0000800F550E66E82C0E9FF83C0EAFF822B80
:101CC000000E8323E552E750EF6EDF06E8D717D00A
:101CD000DF5015E076C0E9FF77C0EAFF762B000EF3
:101CE0007723EF50E66E82C0E9FF83C0EAFF822BC4
:101CF000000E8323E552E750EF6EDF06E9D7E55289
:101D0000E552E7CFD9FF1200D9CFE6FFE1CFD9FFE7
:101D1000020EE12664C0E9FF65C0EAFFEE52EFCF94
:101D2000DFFFDFCF14F0145000017E5D000E7F59FD
:101D300002E27EC0DFFFDF50146E156A14507E5D34
:101D40007E6F15507F597F6F010EDB6ADF50F36E97
:101D5000010EDBCFF4FFF350F45C16E2010EDB5012
:101D6000EA6A380FE96E040EEA22EF50E66E7BC095
:101D7000E9FF7CC0EAFF7B2B000E7C23E552E75095
:101D8000EF6E010EDB2AE2D7000ED8807E55000EE2
:101D90007F5528E266C0E9FF67C0EAFFEE52080EF1
:101DA000EF6E66C0E9FF67C0EAFF020EE926000E8B
:101DB000EA22380EEE6E040EED6E64C0E9FF65C0D7
:101DC000EAFFEF50400B07E166C0E9FF67C0EAFF9A
:101DD000C80EEF6E06D066C0E9FF67C0EAFF880E46
:101DE000EF6E28D066C0E9FF67C0EAFFEE52080E2A
:101DF000EF6E66C0E9FF67C0EAFF020EE926000E3B
:101E0000EA22300EEE6E040EED6E66C0E9FF67C08A
:101E1000EAFF840EEF6E8051811107E005D081C08A
:101E2000FAFF00018051F96EFADF00017D9F9051A9
:101E300001E155DD020EE15C02E2E16AE552E16E8C
:101E4000E552E7CFD9FF1200D9CFE6FFE1CFD9FFA6
:101E5000E6520001788F020EE66EE66AE66A710EBF
:101E6000E66E0F0EE66ECEEC1AF0146E050EE15E15
:101E70001450DF6ADF50146E156A0C0E145C000EED
:101E8000155810E2DF50040DF3CFE9FFF4CFEAFF5D
:101E9000000EE926040EEA22EE6AEE6AEE6AEE6AA7
:101EA000DF2AE8D76D8C020EE66EE66AE66A620EFD
:101EB000E66E000EE66ECEEC1AF0146E050EE15ED4
:101EC00014506D9C0001080E6E6F040E6F6F000EB3
:101ED000646F040E656F64C066F065C067F032C45D
:101EE00061F0615103E1100E606F13D0010EE66ED8
:101EF000E66A610EE66E000EE66E010EE66EE66ABA
:101F000037EC14F0146E060EE15E14500001200E42
:101F1000606FE552E552E7CFD9FF1200D9CFE6FF57
:101F2000E1CFD9FF020EE126000EDE6E040EDD6E5B
:101F3000FD0EDB50E824166EFE0EDB50040DF35050
:101F40001624040DF3CF14F0F4CF15F0D9CFE9FF28
:101F5000DACFEAFF1450EE261550ED22DECFE9FF6E
:101F6000DDCFEAFFEF9EFD0EDB500FE1FE0EEA6AC9
:101F7000DB34FE0BEA36E96E680EE926000EEA2233
:101F8000DECFEEFFDDCFEDFF0ED0FE0EEA6ADB34D2
:101F9000FE0BEA36E96E6E0EE926000EEA22DECF6F
:101FA000EEFFDDCFEDFFDECFE9FFDDCFEAFFEF9CF7
:101FB000DECFE9FFDDCFEAFF040EE926000EEA22BC
:101FC000EF8C020EE15C02E2E16AE552E16EE5525D
:101FD000E7CFD9FF1200D9CFE6FFE1CFD9FF020E3C
:101FE000E126FD0EDBA407D0E66AFE0EDBCFE6FF9E
:101FF00095DFE552E552FD0EDBA208D0010EE66E3C
:10200000FE0EDBCFE6FF8ADFE552E552FE0EDB5027
:10201000156A700F146E0F0E152214C0DEFF15C066
:10202000DDFFDECFE9FFDDCFEAFFFD0EDBCFEFFF07
:10203000020EE15C02E2E16AE552E16EE552E7CFB1
:10204000D9FF1200D9CFE6FFE1CFD9FF020EE1267A
:10205000FE0EDB5020E166C0E9FF67C0EAFFEE52EA
:10206000080EEF6E66C0E9FF67C0EAFF020EE926C0
:10207000000EEA22300EEE6E040EED6E66C0E9FF31
:1020800067C0EAFF8C0EEF6E6EC0E9FF6FC0EAFF1B
:10209000840EEF6E3DD0FD0EDB50E824166EFE0E72
:1020A000DB50040DF3501624040DF3CF14F0F4CFDD
:1020B00015F0000E1426040E152214C0DEFF15C004
:1020C000DDFF840E146EDECFE9FFDDCFEAFF145092
:1020D000EF12FD0EDB50E824166EFE0EDB50040DF1
:1020E000F3501624010F040DF3CF14F0F4CF15F0C4
:1020F000000E1426040E152214C0DEFF15C0DDFFED
:10210000840E146EDECFE9FFDDCFEAFF1450EF122C
:10211000020EE15C02E2E16AE552E16EE552E7CFD0
:10212000D9FF1200D9CFE6FFE1CFD9FF020EE12699
:10213000FD0EDB500FE0FE0EEA6ADB34FE0BEA36E2
:10214000E96E6E0EE926000EEA22EECFDEFFEDCF3D
:10215000DDFF0ED0FE0EEA6ADB34FE0BEA36E96ED6
:10216000680EE926000EEA22EECFDEFFEDCFDDFF9E
:10217000D9CFE9FFDACFEAFFEE50ED1003E1F36AC1
:10218000F46A49D0DECFE9FFDDCFEAFF020EE9268F
:10219000000EEA22FB0EDBCFEEFFFC0EDBCFEDFFE5
:1021A000DECFE9FFDDCFEAFFEE52FA0EDBCFEFFF25
:1021B000400E146EDECFE9FFDDCFEAFF1450EF16BC
:1021C000880E146EDECFE9FFDDCFEAFF1450EF1268
:1021D000FD0EDB500CE0FE0EEA6ADB34FE0BEA3645
:1021E000E96E6E0EE926000EEA22EF740BD0FE0EA9
:1021F000EA6ADB34FE0BEA36E96E680EE926000E69
:10220000EA22EF74DECF14F0DDCF15F014C0F3FF37
:1022100015C0F4FF00D0020EE15C02E2E16AE55273
:10222000E16EE552E7CFD9FF1200D9CFE6FFE1CF4B
:10223000D9FF6DA84ED0FE0EEA6ADB34FE0BEA36FB
:10224000E96E6E0EE926000EEA22EE50EFCFEAFFAD
:10225000E96E400EEE16EE6AEE6AEE6AFE0EEA6A6D
:10226000DB34FE0BEA36E96E6E0EE926000EEA223A
:10227000EE50EFCFEAFFE96EEE7CFE0EEA6ADB3449
:10228000FE0BEA36E96E6E0EE926000EEA22EF74C6
:10229000400E146EFE0EEA6ADB34FE0BEA36E96E7F
:1022A0006E0EE926000EEA22EE50EFCFEAFFE96E4D
:1022B0001450EF16FE0EEA6ADB34FE0BEA36E96EC6
:1022C0006E0EE926000EEA22EE50EFCFEAFFE96E2D
:0A22D000EF7CE552E7CFD9FF1200C2
:0622DA00D9CFE6FFE1CFC1
:1022E000D9FFFD0EDBCF14F0DB06FE0EDBCF15F0C1
:1022F00001E2DB061450151001E0F3D7E552E7CFF9
:10230000D9FF12008980640EE66EE66AE6DFE552C8
:10231000E5528990640EE66EE66ADFDFE552E5522B
:102320001200D9CFE6FFE1CFD9FFFE0EDB50010B43
:10233000E8B08986E8A08996FE0EDB407F0B010B92
:10234000E8B08A8CE8A08A9CFE0EDB40E8403F0B98
:10235000010BE8B0898AE8A0899AFE0EDB40E840CC
:10236000E8401F0B010BE8B08A8EE8A08A9ECADF06
:10237000E552E7CFD9FF1200D9CFE6FFE1CFD9FF71
:102380008994FE0EDB380F0BE66ECBDFE552FE0EB6
:10239000DBCFE6FFC6DFE552E552E7CFD9FF1200FB
:1023A000D9CFE6FFE1CFD9FF8984FE0EDB380F0BD2
:1023B000E66EB7DFE552FE0EDBCFE6FFB2DFE55299
:1023C000E552E7CFD9FF12009290929492929296A2
:1023D000939C929A939E8992320EE66ECDDFE552DF
:1023E000640EE66EE66A79DFE552E552280EE66E87
:1023F000C3DFE5520C0EE66EBFDFE552060EE66E59
:10240000BBDFE552010EE66EB7DFE5521200D9CF11
:10241000E6FFE1CFD9FFFD0EDBCFE9FFFE0EDBCFFC
:10242000EAFFEF500EE0FD0EDBCFE9FFDB2AFE0EE8
:10243000DBCFEAFF01E3DB2AEF50E66EB1DFE552C6
:10244000EAD7E552E7CFD9FF1200010EE66E94DF1E
:10245000E552640EE66EE66A40DFE552E552120090
:10246000D9CFE6FFE1CFD9FF050EE126FD0EDBCF88
:1024700014F0FE0EDBCF15F00A0E0D6E0E6A14C0BE
:1024800008F015C009F0E8EC1AF004C014F005C01B
:1024900015F01450DF6E0A0E146E156AFD0EDBCFB8
:1024A00008F0FE0EDBCF09F014C00DF015C00EF0E1
:1024B000E8EC1AF0FD0E08C0DBFFFE0E09C0DBFFE2
:1024C000FD0EDBCF14F0FE0EDBCF15F00A0E0D6E05
:1024D0000E6A14C008F015C009F0E8EC1AF004C048
:1024E00014F005C015F0010E14C0DBFF0A0E146EC7
:1024F000156AFD0EDBCF08F0FE0EDBCF09F014C02D
:102500000DF015C00EF0E8EC1AF0FD0E08C0DBFF70
:10251000FE0E09C0DBFFFD0EDBCF14F0FE0EDBCF9D
:1025200015F00A0E0D6E0E6A14C008F015C009F001
:10253000E8EC1AF004C014F005C015F0020E14C047
:10254000DBFFDB50300FE66E2BDFE552010EDB5078
:10255000300FE66E25DFE552300EDF24E66E20DF19
:10256000E552050EE15C02E2E16AE552E16EE552F8
:10257000E7CFD9FF1200DACFE4FFE2CFDAFFE6526D
:10258000E552E5CFDAFF1100D8CFE4FFE0CFE4FF5A
:10259000E46EDACFE4FFE2CFDAFFE652E552E5CFB0
:1025A000DAFFE550E5CFE0FFE5CFD8FF1000949CBF
:1025B000948EB886AC94010EB06E380EAF6EAC98A7
:1025C000AB8EB8989D8AAB9CAB88D08EF28EF28C85
:1025D0009F8A120009D8F8DEEADF956A836A83824F
:1025E000A8EC08F0FCD712000F0EC11202D81CEFA5
:1025F00008F0F00E8C1695169388938A8150100B74
:1026000001E0010E0001956F8150200B01E0010EE9
:10261000966F9B6B9BC09AF09BC099F0010E976FD1
:102620009C6B9D6B9E6B9F6B1200A1D8200E0001CE
:10263000E76E6019E8AE02D0E73402D0E750605D83
:1026400003E36D50020B01E00BD07ED8000907E0D8
:102650000001975102E0000E01D0010E976F01D8E2
:1026600012000001970521E10001AD6B00019851B6
:102670000E081AE2996B070E0001AC15F76A380FC5
:10268000F66E360EF7220800F5CF9AF0020EAC2552
:10269000070BF76A380FF66E360EF7220800F5CFF3
:1026A0009BF0AC2B0001986B05D09B6B9BC09AF004
:1026B0009BC099F09C519D1102E1000E08D09CC076
:1026C000E9FF9DC0EAFFEF50800B01E0010E000919
:1026D00027E199C043F49AC044F49BC045F400013B
:1026E000AD5103E10001975103E00001970518E1A6
:1026F000030EE66E430EE66E040EE66E010EE66E07
:10270000E66E92EC10F0146E050EE15E1450F3CFFD
:102710009CF0F4CF9DF00001982B0001010EAD6FED
:1027200012008150100B01E0010E0001955D09E0DF
:102730008150100B01E0010E956F81B802D0010E9F
:1027400002D0000E00D012008150200B01E0010EDB
:102750000001965D09E08150200B01E0010E966FAB
:1027600081BA02D0010E02D0000E00D0120000018A
:10277000AE51AF1104E1100EAE6F270EAF6FAE0772
:10278000000EAF5B6DA20AD0AE51AF1106E18C70A6
:102790008CA002D08C8201D08C922ED0000160518E
:1027A00003E18C908C9228D0600503E18C808C82B0
:1027B00023D0020E605D03E18C808C921DD0040E4C
:1027C000605D03E18C908C8217D0100E605D07E194
:1027D0000001AE51AF1102E18C708C920DD0200E31
:1027E000605D0AE10001AE51AF1106E18C708CA072
:1027F00002D08C9201D08C821200120012001200C2
:102800001200C1EF19F012001A0EE66E010EE66E0C
:10281000EBEC0FF0E552E5521A0EE66E020EE66E94
:10282000EBEC0FF0E552E5521200000184051EE1C9
:10283000000185051BE1E2DF6D920001856B00015F
:10284000100EA06F0E0EA16FA007000EA15BA0518D
:10285000A111FAE16D84080EA06F070EA16FA00709
:10286000000EA15BA051A111FAE16D941200D9CF25
:10287000E6FFE1CFD9FFFD0EDBCF08F0FE0EDBCF88
:1028800009F0050E081801E1095039E0E868081858
:1028900002E17F0E091831E0030E081801E109502A
:1028A0002AE0020E081801E1095023E0010E081881
:1028B00001E109501CE0740E081801E1095015E00F
:1028C000750E081801E109500EE0730E081801E1B9
:1028D000095007E0720E081801E1095001E010D01C
:1028E0000FD08DDF0DD089DF0BD088DF09D08CDFD2
:1028F00007D089DF05D085DF03D082DF01D000D08B
:10290000010E00D0E552E7CFD9FF1200D9CFE6FF84
:10291000E1CFD9FF020EE126DE6ADD6ADECF14F0D8
:10292000DDCF15F0166A176A15AE02D01668176863
:10293000FB0EDBCF07F0FC0EDBCF08F0FD0EDBCF8C
:1029400009F0FE0EDBCF0AF017500A18E8AE02D0ED
:102950000A3408D00750145C08501558095016580E
:102960000A50175805E2DF2A010E01E3DB2AD6D709
:10297000020EE15C02E2E16AE552E16EE552E7CF68
:10298000D9FF1200D9CFE6FFE1CFD9FF0A0EE12629
:10299000010EE76EFD0EDBCFE9FFFE0EDBCFEAFF97
:1029A000E750E926000EEA22EF50400A73E07D0A64
:1029B00060E0160A4CE0010A3AE0050A22E0010E46
:1029C0000001B46FB56B000EB211146EB3C015F0F8
:1029D00014C0DEFF15C0DDFF020EDB6A030EDB6AEA
:1029E000010EE76EFD0EDBCFE9FFFE0EDBCFEAFF47
:1029F000E750E926000EEA22EF502D0801E0B1D1A0
:102A00001CD1020E0001B211146EB3C015F014C037
:102A1000DEFF15C0DDFF020EDB6A030EDB6A040E6B
:102A2000DB6A050EDB6A010EB46FB56B3ED3010E97
:102A3000DE6EDD6A020EDB6A030EDB6A040EDB6A01
:102A4000050EDB6A010E0001B46FB56B2ED3010ECB
:102A50000001B26FB36BDE6EDD6A020EDB6A030E3D
:102A6000DB6A040EDB6A050EDB6A010EB46FB56B20
:102A70001CD3DE6ADD6A020EDB6A030EDB6A040E1B
:102A8000DB6A050EDB6A0001B26BB36B010EB46F3B
:102A9000B56B0BD30001B46BB56B010E146E835094
:102AA000020B01E0010E145CE8B08382E8A083927F
:102AB000020EF36E060EF3CFDBFF070EDB6A080E85
:102AC000DB6A090EDB6A060EDBCF14F0070EDBCFE4
:102AD00015F0FB0EDBCF16F0FC0EDBCF17F0160661
:102AE000000E175A15501718E8AE02D0173404D04C
:102AF0001650145C1750155859E2060EDBCF15F02E
:102B0000070EDBCF16F0FD0EDB501524E96EFE0E2E
:102B1000DB501620EA6EEFCF14F0300E145C11E398
:102B2000060EDBCF17F0070EDBCF18F0FD0EDB50E3
:102B30001724E96EFE0EDB501820EA6EEF503908BC
:102B400006E2080EDB6A090EDB6A30D02ED0060ED4
:102B5000DBCF18F0070EDBCF19F0FD0EDB50182489
:102B6000E96EFE0EDB501920EA6EEF50D00F166EA4
:102B7000176A0A0E086E096A080EDBCF0DF0090EFF
:102B8000DBCF0EF0A1EC1AF006501624146E07509D
:102B90001720156E080E14C0DBFF090E15C0DBFFF1
:102BA000060EDB2A070E01E3DB2A8DD70401476BF3
:102BB000486B080EDBCF49F44A6B4B6B4C6B4D6B8B
:102BC0004E6BE66E470EE66E040EE66E010EE66E86
:102BD000020EE66E92EC10F0146E050EE15E1450DB
:102BE000F3CF9EF0F4CF9FF0E80EE66E030EE66E94
:102BF000E66AE66A8BDEE552E552E552E5520401EB
:102C0000476B486B496B4A6B4B6B4C6B4D6B4E6B18
:102C1000080EE66E470EE66E040EE66E010EE66ED8
:102C2000020EE66E92EC10F0146E050EE15E14508A
:102C3000F3CF9EF0F4CF9FF038D2020EF36E060E63
:102C4000F3CFDBFF070EDB6A060EDBCF14F0070EB7
:102C5000DBCF15F0FD0EDB501424E96EFE0EDB50C9
:102C60001520EA6EEF5020086BE08386060EDBCF5E
:102C700015F0070EDBCF16F0FD0EDB501524E96EC4
:102C8000FE0EDB501620EA6EEFCF14F0300E145C0F
:102C900011E3060EDBCF17F0070EDBCF18F0FD0EA9
:102CA000DB501724E96EFE0EDB501820EA6EEF5061
:102CB000390817E2060EDBCF19F0070EDBCF1AF04A
:102CC000FD0EDB501924E96EFE0EDB501A20EA6E71
:102CD000EF502D0806E0020EDB6A030EDB6A30D0EF
:102CE0002ED0060EDBCF18F0070EDBCF19F0FD0E4D
:102CF000DB501824E96EFE0EDB501920EA6EEF500F
:102D0000D00F166E176A0A0E086E096A020EDBCF24
:102D10000DF0030EDBCF0EF0A1EC1AF006501624D6
:102D2000146E07501720156E020E14C0DBFF030E41
:102D300015C0DBFF060EDB2A070E01E3DB2A84D772
:102D400008680968020EDBCF0DF0030EDBCF0EF032
:102D5000A1EC1AF0020E06C0DBFF030E07C0DBFF7A
:102D600072D0010EF36E060EF3CFDBFF070EDB6AA7
:102D7000060EDBCF14F0070EDBCF15F0FD0EDB5097
:102D80001424E96EFE0EDB501520EA6EEF50200889
:102D90005AE08386060EDBCF15F0070EDBCF16F068
:102DA000FD0EDB501524E96EFE0EDB501620EA6E98
:102DB000EFCF14F0300E145C11E3060EDBCF17F0EA
:102DC000070EDBCF18F0FD0EDB501724E96EFE0E68
:102DD000DB501820EA6EEF50390806E2020EDB6A7B
:102DE000030EDB6A30D02ED0060EDBCF18F0070EB4
:102DF000DBCF19F0FD0EDB501824E96EFE0EDB5020
:102E00001920EA6EEF50D00F166E176A0A0E086E80
:102E1000096A020EDBCF0DF0030EDBCF0EF0A1EC42
:102E20001AF006501624146E07501720156E020E65
:102E300014C0DBFF030E15C0DBFF060EDB2A070EF6
:102E400001E3DB2A95D7040EDB6A050EDB6A010E6F
:102E5000E76E060EDBCF14F0070EDBCF15F0E75060
:102E60001426000E1522060E14C0DBFF070E15C037
:102E7000DBFF060EDBCF14F0070EDBCF15F0FD0EE7
:102E8000DB501424E96EFE0EDB501520EA6EEF5085
:102E90002D0801E096D0010EE76E060EDBCF14F090
:102EA000070EDBCF15F0E7501426000E1522060E94
:102EB00014C0DBFF070E15C0DBFF060EDBCF14F0DE
:102EC000070EDBCF15F0FB0EDBCF16F0FC0EDBCFD1
:102ED00017F01606000E175A15501718E8AE02D054
:102EE000173404D01650145C1750155859E2060ECA
:102EF000DBCF15F0070EDBCF16F0FD0EDB501524EF
:102F0000E96EFE0EDB501620EA6EEFCF14F0300EA5
:102F1000145C11E3060EDBCF17F0070EDBCF18F0C1
:102F2000FD0EDB501724E96EFE0EDB501820EA6E12
:102F3000EF50390806E2040EDB6A050EDB6A30D07A
:102F40002ED0060EDBCF18F0070EDBCF19F0FD0EEA
:102F5000DB501824E96EFE0EDB501920EA6EEF50AC
:102F6000D00F166E176A0A0E086E096A040EDBCFC0
:102F70000DF0050EDBCF0EF0A1EC1AF00650162472
:102F8000146E07501720156E040E14C0DBFF050EDB
:102F900015C0DBFF060EDB2A070E01E3DB2A8DD707
:102FA00008680968040EDBCF0DF0050EDBCF0EF0CC
:102FB000A1EC1AF0040E06C0DBFF050E07C0DBFF14
:102FC00073D0060EDBCF14F0070EDBCF15F0FB0E2F
:102FD000DBCF16F0FC0EDBCF17F01606000E175AEB
:102FE00015501718E8AE02D0173404D01650145CF0
:102FF0001750155859E2060EDBCF15F0070EDBCF40
:1030000016F0FD0EDB501524E96EFE0EDB50162087
:10301000EA6EEFCF14F0300E145C11E3060EDBCF36
:1030200017F0070EDBCF18F0FD0EDB501724E96E0A
:10303000FE0EDB501820EA6EEF50390806E2040E4F
:10304000DB6A050EDB6A30D02ED0060EDBCF18F01F
:10305000070EDBCF19F0FD0EDB501824E96EFE0ED3
:10306000DB501920EA6EEF50D00F166E176A0A0E69
:10307000086E096A040EDBCF0DF0050EDBCF0EF0F3
:10308000A1EC1AF006501624146E07501720156E86
:10309000040E14C0DBFF050E15C0DBFF060EDB2A95
:1030A000070E01E3DB2A8DD700D00001B451B51122
:1030B00017E0DFCF43F4020EDBCF44F4040EDBCF86
:1030C00045F4030EE66E430EE66E040EE66E010E48
:1030D000E66EE66E92EC10F0146E050EE15E145092
:1030E0000A0EE15C02E2E16AE552E16EE552E7CFE9
:1030F000D9FF1200DACFE4FFE2CFDAFFE9CFE4FF35
:10310000EACFE4FFF6CFE4FFF7CFE4FFF5CFE4FF2B
:10311000F3CFE4FFF4CFE4FFFACFE4FF00EE00F0DA
:10312000140EE80403E3EECFE4FFFBD700EE14F047
:10313000070EE80403E3EECFE4FFFBD7E652D9CF56
:10314000E6FFE1CFD9FF040EE1269EAA46D0990EF4
:103150000001B025E96E000EB121EA6EAECFEFFF9F
:10316000990EB025E96E000EB121EA6EEF503C08D1
:1031700009E1010E1B6E8350010B1B5CE8B08380DC
:10318000E8A08390B02B000EB1233C0E0001995DA6
:1031900020E1B0C0E9FFB1C0EAFFE906000EEA5A3B
:1031A000990EE926000EEA22EF503E0811E1B0C068
:1031B000E6FFB1C0E6FF990EE66E000EE66EC2ECC9
:1031C00014F0E552E552E552E5520001B06BB16BE7
:1031D00003D00001B06BB16B0DD0010E1B6E83509C
:1031E000800B01E0010E1B5CE8B0838EE8A0839E9B
:1031F000A8EC08F0040EE15C02E2E16AE552E16E3F
:10320000E552E7CFD9FFE55200EE1AF0070EE804C9
:1032100003E3E5CFEDFFFBD700EE13F0140EE80457
:1032200003E3E5CFEDFFFBD7E5CFFAFFE5CFF4FFF2
:10323000E5CFF3FFE5CFF5FFE5CFF7FFE5CFF6FFED
:0E324000E5CFEAFFE5CFE9FFE5CFDAFF1100A9
:02324E0012016B
:10325000000200000008D804000003000102000181
:1032600009024200020100C032090400000103010A
:103270000200092111010001223200070581030328
:1032800000010904010001030101000921110100ED
:1032900001223F0007058203080001070502030819
:1032A00000010403090434034D0069006300720047
:1032B0006F00630068006900700020005400650022
:1032C000630068006E006F006C006F00670079009B
:1032D000200049006E0063002E002E034D006F0099
:1032E000750073006500200049006E002000610039
:1032F000200043006900720063006C00650020003C
:10330000440065006D006F0005010902A10109017B
:10331000A10005091901290315002501950375016F
:103320008102950175058101050109300931158179
:10333000257F750895028106C0C005010906A10117
:10334000050719E029E71500250175019508810297
:103350009501750881039505750105081901290571
:103360009102950175039103950675081500256571
:103370000507190029658100C06032A232A632DA41
:01338000321A
:0E338200040130511F0B010801E08AD03451C4
:1033900003E0340501E085D0060E315D45E133518F
:1033A000230A41E0010A21E0030A01E03DD00001C7
:1033B00061051AE1040134510AE10001720E766FD1
:1033C000320E776F090E796F7A6BC00E786F040139
:1033D00034050AE100018B0E766F320E776F090E0D
:1033E000796F7A6BC00E786F1FD0000161051AE10A
:1033F000040134510AE10001080E766F330E776F35
:10340000320E796F7A6BC00E786F040134050AE1D1
:1034100000013A0E766F330E776F3F0E796F7A6B3D
:10342000C00E786F01D000D004013051600BE8422B
:10343000E842E842E842E842010801E032D0315176
:103440000B0A29E0080A1CE0090A14E0080A07E050
:103450000B0A04E0080A01E024D023D022D00001A6
:10346000B60E766F000E776F010E796F7A6BC10E14
:10347000786F17D00001800E786F33C4B6F011D08A
:103480000001B70E766F000E776F010E796F7A6BC1
:10349000810E786F06D00001800E786F32C4B7F0CD
:0434A00000D0120046
:0C34A4002A0EF66E100EF76E000EF86E89
:1034B00000010900F550A76F0900F550A86F03E15E
:1034C000A76701D03DD00900F550A26F0900F55063
:1034D000A36F0900F550A46F09000900F550E96ECB
:1034E0000900F550EA6E090009000900F550A56FC2
:1034F0000900F550A66F09000900F6CFA9F0F7CF33
:10350000AAF0F8CFABF0A2C0F6FFA3C0F7FFA4C0AB
:10351000F8FF0001A55302E1A65307E00900F550AA
:10352000EE6EA507F8E2A607F9D7A9C0F6FFAAC074
:10353000F7FFABC0F8FF0001A707000EA85BBFD7DD
:02354000120077
:0E35420009C013F008C012F008500D02F4CFBB
:1035500007F0F3CF06F009500E02F4CF09F0F3CFD5
:1035600008F00D02F3500726F4500822E86A0922F9
:1035700012500E02F3500726F4500822E86A09227E
:103580000EAEC7EF1AF01250085E1350095A13AE70
:0C359000000C0D50085E0E50095A000C93
:04359C00FE0EE3CF6D
:1035A000E9FFFF0EE3CFEAFFE9CFF3FFEACFF4FF35
:1035B000FB0EE35003E1FC0EE35009E0FB0EE306D3
:1035C00002E2FC0EE306FD0EE350EE6EF1D71200B0
:1035D000056A046A100EE76ED8900836093604367C
:1035E00005360D50045C0E50055805E30D50045E81
:0C35F0000E50055A082AE72EF0D71200F2
:0435FC00000EF36E5C
:1036000000EE00F0080E01D81200EA6002D0EE6A67
:0C361000FCD7F350E9601200EE6AFCD712
:04361C0013EE00F0B9
:1036200023EE00F0F86A019C52EC1AF020EC1BF03B
:08363000EAEC12F0FBD71200D6
:08363800FCFCFC00040404008A
:02364000120076
:0A364200000000000000000000007E
:020000040030CA
:0100000024DB
:010001000EF0
:010002003FBE
:010003001EDE
:010005008179
:010006008178
:010008000FE8
:01000900C036
:01000A000FE6
:01000B00E014
:01000C000FE4
:01000D0040B2
:00000001FF
