:020000040000FA
:0600000067EF03F012009F
:0600080004EF08F01200F5
:02000E00FCFCF8
:06001000FC0004040400E2
:060018000CEF08F01200DD
:02001E000100DF
:0C0020000E100000AC0000000500000005
:04002C00DACFE4FF44
:10003000E2CFDAFFE652E552E5CFDAFF1100D8CF82
:10004000E4FFE0CFE4FFE46EDACFE4FFE2CFDAFFD3
:10005000E652E552E5CFDAFFE550E5CFE0FFE5CF28
:10006000D8FF100005D89BEC08F023D8FCD712006D
:100070000F0EC112F19E936E02D80FEF08F0F00E32
:100080008C1695169388938A8150100B01E0010E0F
:100090000001956F8150010B966F9B6B9BC09AF08E
:1000A0009BC099F0010E976F9C6B9D6B9E6B9F6B35
:1000B0001200200E0001E76E6019E8AE02D0E734AE
:1000C00002D0E750605D03E36D50020B01E002D007
:1000D00002D861D812000001970521E10001AF6B41
:1000E000000198510E081AE2996B070E0001AC1539
:1000F000F76A0E0FF66E000EF7220800F5CF9AF0A1
:10010000020EAC25070BF76A0E0FF66E000EF722F3
:100110000800F5CF9BF0AC2B0001986B05D09B6BD2
:100120009BC09AF09BC099F09C519D1102E1000E7A
:1001300008D09CC0E9FF9DC0EAFFEF50800B01E0B2
:10014000010E000927E199C043F49AC044F49BC012
:1001500045F40001AF5103E10001975103E00001B4
:10016000970518E1030EE66E430EE66E040EE66E8A
:10017000010EE66EE66E85EC10F00B6E050EE15E8C
:100180000B50F3CF9CF0F4CF9DF00001982B0001B1
:10019000010EAF6F120000019E519F1102E1000E8F
:1001A00008D09EC0E9FF9FC0EAFFEF50800B01E03E
:1001B000010E00094EE14FD800092BE00401476B06
:1001C000486B0001B051B02B0401496F4A6B4B6B77
:1001D0004C6B4D6B4E6B080EE66E470EE66E040ED2
:1001E000E66E010EE66E020EE66E85EC10F00B6E0A
:1001F000050EE15E0B50F3CF9EF0F4CF9FF0280E7A
:100200000001B05D02E1040EB06F010EAD6FAE6B88
:1002100020D00401476B486B496B4A6B4B6B4C6BAE
:100220004D6B4E6B080EE66E470EE66E040EE66EE4
:10023000010EE66E020EE66E85EC10F00B6E050EFA
:10024000E15E0B50F3CF9EF0F4CF9FF00001AD6B59
:10025000AE6B00D012008150010B0001965D07E0EB
:100260008150010B966F81B002D0010E02D0000EBA
:1002700000D0120012001200120012005DEF02F016
:1002800012001A0EE66E010EE66EDEEC0FF0E5527D
:10029000E5521A0EE66E020EE66EDEEC0FF0E55247
:1002A000E5521200000184051EE1000185051BE1F5
:1002B000E2DF6D920001856B0001100EA06F0E0E43
:1002C000A16FA007000EA15BA051A111FAE16D84FE
:1002D000080EA06F070EA16FA007000EA15BA05132
:1002E000A111FAE16D941200D9CFE6FFE1CFD9FF59
:1002F000FD0EDBCF06F0FE0EDBCF07F0050E061875
:1003000001E1075039E0E868061802E17F0E07189E
:1003100031E0030E061801E107502AE0020E06182C
:1003200001E1075023E0010E061801E107501CE02F
:10033000740E061801E1075015E0750E061801E16C
:1003400007500EE0730E061801E1075007E0720E29
:10035000061801E1075001E010D00FD08DDF0DD05D
:1003600089DF0BD088DF09D08CDF07D089DF05D08B
:1003700085DF03D082DF01D000D0010E00D0E5522E
:06038000E7CFD9FF1200D7
:0A0386001201000200000008D80474
:10039000000003000102000109024200020100C046
:1003A00032090400000103010200092111010001CA
:1003B0002232000705810303000109040100010343
:1003C000010100092111010001223F0007058203FC
:1003D00008000107050203080001040309043403AF
:1003E0004D006900630072006F00630068006900DF
:1003F0007000200054006500630068006E006F000C
:100400006C006F0067007900200049006E006300F7
:100410002E002E034D006F00750073006500200054
:1004200049006E0020006100200043006900720056
:1004300063006C0065002000440065006D006F00E3
:1004400005010902A1010901A100050919012903FA
:10045000150025019503750181029501750581013E
:100460000501093009311581257F7508950281063E
:10047000C0C005010906A101050719E029E715001B
:10048000250175019508810295017508810395057F
:10049000750105081901290591029501750391035C
:1004A0009506750815002565050719002965810061
:0904B000C09803DA03DE03120414
:0604BA00040130511F0B8C
:1004C000010801E08AD0345103E0340501E085D011
:1004D000060E315D45E13351230A41E0010A21E076
:1004E000030A01E03DD0000161051AE10401345125
:1004F0000AE10001AA0E766F030E776F090E796F7D
:100500007A6BC00E786F040134050AE10001C30E56
:10051000766F030E776F090E796F7A6BC00E786F66
:100520001FD0000161051AE1040134510AE1000104
:10053000400E766F040E776F320E796F7A6BC00EB5
:10054000786F040134050AE10001720E766F040E23
:10055000776F3F0E796F7A6BC00E786F01D000D045
:1005600004013051600BE842E842E842E842E842C8
:10057000010801E032D031510B0A29E0080A1CE0E1
:10058000090A14E0080A07E00B0A04E0080A01E07F
:1005900024D023D022D00001B10E766F000E776FE9
:1005A000010E796F7A6BC10E786F17D00001800E43
:1005B000786F33C4B1F011D00001B20E766F000E27
:1005C000776F010E796F7A6B810E786F06D000011C
:0C05D000800E786F32C4B2F000D0120030
:0405DC001E0EF66E8B
:1005E000000EF76E000EF86E00010900F550A76FBF
:1005F0000900F550A86F03E1A76701D03DD00900BD
:10060000F550A26F0900F550A36F0900F550A46FD3
:1006100009000900F550E96E0900F550EA6E09007D
:1006200009000900F550A56F0900F550A66F0900F3
:100630000900F6CFA9F0F7CFAAF0F8CFABF0A2C02F
:10064000F6FFA3C0F7FFA4C0F8FF0001A55302E125
:10065000A65307E00900F550EE6EA507F8E2A607DD
:10066000F9D7A9C0F6FFAAC0F7FFABC0F8FF000199
:0A067000A707000EA85BBFD7120019
:06067A00FE0EE3CFE9FFD4
:10068000FF0EE3CFEAFFE9CFF3FFEACFF4FFFB0E63
:10069000E35003E1FC0EE35009E0FB0EE30602E247
:0E06A000FC0EE306FD0EE350EE6EF1D71200E5
:0206AE00000E3C
:1006B000F36E00EE00F0080E01D81200EA6002D0DE
:0E06C000EE6AFCD7F350E9601200EE6AFCD738
:0206CE0013EE29
:1006D00000F023EE00F0F86A0A9CEEEC02F003EC66
:0A06E00008F032EC00F0FBD7120026
:0610000067EF03F012008F
:021006001200D6
:0610080016EF00F01200DB
:02100E000000E0
:03101000000004D9
:061018001FEF00F01200C2
:02101E00D9CF28
:10102000E6FFE1CFD9FFE652A09A6A6A686A706A61
:10103000020EE66EE66AE66A710EE66E0F0EE66E68
:101040003DEC03F00B6E050EE15E0B50160E6F6E5D
:101050009F0E6B6E7B0E696EDF6ADF500B6E0C6A43
:101060000C0E0B5C000E0C5810E2DF50040DF3CF99
:10107000E9FFF4CFEAFF000EE926040EEA22EE6A49
:10108000EE6AEE6AEE6ADF2AE8D76D8C6E6A6D98BA
:101090006D9C68A607D068960001786B7D6B7E6BAF
:1010A0007F6BF7D70001010E916F926F936B946B7A
:1010B000856BDF6A030EDF5C26E2EA6ADF34FE0B33
:1010C000EA36E96E6E0EE926000EEA22EE6AED6A55
:1010D000EA6ADF34FE0BEA36E96E680EE926000E96
:1010E000EA22EE6AED6ADF50EA6A890FE96E000EC5
:1010F000EA22EF6ADF50EA6A8C0FE96E000EEA22FC
:10110000EF6ADF2AD7D70001080E6E6F040E6F6FEB
:10111000160E706E0401300E026F040E036F080E7F
:10112000016F840E006F0001616B606BE552E55248
:10113000E7CFD9FF1200D9CFE6FFE1CFD9FFE652C2
:101140000001605116E106D06D6A696A0001606BAA
:10115000A19AB9D06D6A696A160E6F6E9F0E6B6E9A
:101160007B0E696E6DB602D06D86FCD70001010E54
:10117000606F600508E16DBA06D0686A696A6980C7
:101180006988020E606F6850040B05E06950040B1B
:1011900002E06894CBD86DA202D0A19A94D0685096
:1011A000010B08E06950010B05E039DF0001040E76
:1011B000606F68906850100B05E06950100B02E0FA
:1011C000A0D8689868AC19D069AC0FD0010EE66E53
:1011D000E66A000EE66EE66A730EE66EE66A74EC88
:1011E00001F00B6E060EE15E0B50689C00018F5102
:1011F00001E08F078F5101E165DB6850200B04E0AF
:101200006950200B01E064D86850020B13E069506C
:10121000020B10E0010EE66EE66A000EE66EE66A6C
:10122000E6687F0EE66E74EC01F00B6E060EE15E72
:101230000B506A6A040E0001E76E6019E8AE02D036
:10124000E73402D0E750605D02E2A19A3CD069A683
:1012500039D0DF6A040EDF5C35E268A630D06CCF8F
:1012600086F000018651780BE842E842E842876F39
:10127000689686B508D08751EA6A8C0FE96E000E31
:10128000EA22EF7007D08751EA6A890FE96E000EF3
:10129000EA22EF70875102E160D810D0000EE66EAE
:1012A000E66A860EE66E000EE66E720EE66EE66A80
:1012B00074EC01F00B6E060EE15E0B5001D002D013
:1012C000DF2AC8D7A19AE552E552E7CFD9FF12002D
:1012D00070A015D064C0E9FF65C0EAFFEF50800838
:1012E0000DE16EC0E9FF6FC0EAFFEF50840806E130
:1012F00064C0E9FF65C0EAFF8C0EEF6E7090689ADB
:101300001200698468986D820001010E856F000EDD
:10131000E66EE66AE66EE66A750EE66EE66A74ECFE
:1013200001F00B6E060EE15E0B5012000001856BA2
:10133000000EE66EE66AE66EE66A740EE66EE66A31
:1013400074EC01F00B6E060EE15E0B506D92699429
:1013500068A402D06894FCD71200D9CFE6FFE1CF91
:10136000D9FFE65200012D0E8F6FFD0E861553E159
:101370007E0E8615E8407F0B040DF3CF64F0F4CFAA
:1013800065F0000E6427040E652364C066F065C036
:1013900067F0667564C0E9FF65C0EAFFEF503C0B7B
:1013A000E842E8420D0835E1DF6A080EDF5C23E21F
:1013B00064C0E9FF65C0EAFF020EE926000EEA22DA
:1013C000EE50EFCFEAFFE96EEF50E66EDF50EA6ACB
:1013D000300FE96E040EEA22E552E750EF6E64C06A
:1013E000E9FF65C0EAFF020EE926000EEA22EE2AB6
:1013F000EF22DF2ADAD764C0E9FF65C0EAFF020EF8
:10140000E926000EEA22300EEE6E040EED6E0DD8C7
:1014100001D03AD805D0FD0E8615040801E15AD84E
:10142000E552E552E7CFD9FF12000001746B906BD3
:10143000936B946B886B756B6EC0E9FF6FC0EAFFAE
:10144000EF9E6E756EC0E9FF6FC0EAFFEF9E6E758E
:1014500066C0E9FF67C0EAFFEF9E786B796B7A6B35
:101460007D6B7E6B7F6B90D8000EE66EE66AE66E53
:10147000E66A030EE66EE66A74EC01F00B6E060E89
:10148000E15E0B50B4EF0DF0020E0001755D03E15B
:1014900077EC0EF01ED0756B88511AE166C0E9FF3B
:1014A00067C0EAFFEE52080EEF6E66C0E9FF67C044
:1014B000EAFF020EE926000EEA22300EEE6E040E5E
:1014C000ED6E66C0E9FF67C0EAFF8C0EEF6E01D0DB
:1014D000886B1200D9CFE6FFE1CFD9FFE6526EC08C
:1014E000E9FF6FC0EAFFEF50400B01E0010EDF6E35
:1014F00000016E75080E605D09E132C46EFF6E502A
:1015000003E0100E606F02D0040E606F750528E1D5
:101510006EC0E9FF6FC0EAFF020EE926000EEA2264
:10152000380EEE6E040EED6E80DB020E0001745D6F
:1015300007E16EC0E9FF6FC0EAFF840EEF6E0FD0C7
:10154000DF5007E16EC0E9FF6FC0EAFFC80EEF6E23
:1015500006D06EC0E9FF6FC0EAFF880EEF6E0FD0B5
:101560007DAF0CD08051811107E005D081C0FAFF1A
:1015700000018051F96EFADF00017D9F756BE55225
:10158000E552E7CFD9FF120004013051600BE84269
:10159000E842E842E842E842000901E059D031510E
:1015A0000C0A55E00B0A44E00C0A36E0010A27E079
:1015B0000B0A23E0020A21E0030A1DE0080A11E0F9
:1015C000010A0CE00F0A08E0030A01E040D0000124
:1015D000788F080E606F3CD006DA3AD017EC0FF027
:1015E00037D00001610E766F000E776F7881010EA3
:1015F000796F788F2DD057DA2BD02BD829D0345152
:101600000001766F776B620E7627000E7723788164
:10161000010E796F788F1CD00001788F040134514E
:10162000EA6A620FE96E000EEA2232C4EFFF10D0C0
:10163000000EE66EE66AE66EE66A020EE66EE66AA0
:1016400074EC01F00B6E060EE15E0B5001D000D081
:101650001200D9CFE6FFE1CFD9FF030EE126040146
:10166000320510E130511F0B00090CE10001788FA9
:10167000030E0401315D04E10001010E846F02D00C
:101680000001846B0401325101E012D130511F0B73
:10169000020801E00DD134510F0B000901E108D11E
:1016A00034510F0B020801E203D1200E0001605DEE
:1016B00001E0FED0788F040134BF1AD034510F0BF3
:1016C000E96EEA6AD890E936EA36680EE926000E35
:1016D000EA22EECFDEFFEDCFDDFF34510F0BEA6AD9
:1016E0008C0FE96E000EEA22020EEFCFDBFF19D05D
:1016F00034510F0BE96EEA6AD890E936EA366E0E7D
:10170000E926000EEA22EECFDEFFEDCFDDFF3451F9
:101710000F0BEA6A890FE96E000EEA22020EEFCF84
:10172000DBFFD950020FE96EDACFEAFFEF50010B71
:1017300003E1000EDF9401D0DF8434BF10D03451B8
:101740000F0BE96EEA6AD890E936EA36680EE926A8
:10175000000EEA22DECFEEFFDDCFEDFF0FD03451D9
:101760000F0BE96EEA6AD890E936EA366E0EE92682
:10177000000EEA22DECFEEFFDDCFEDFF030E315D7E
:1017800023E1DECFE9FFDDCFEAFFEF50800B13E06E
:1017900034BF09D034510F0BEA6A8C0FE96E000E8A
:1017A000EA22EF8208D034510F0BEA6A890FE96E02
:1017B000000EEA22EF82840E0B6EDECFE9FFDDCF52
:1017C000EAFF0B50EF1274D0DF74DECFE9FFDDCFFC
:1017D000EAFFEF50800B1BE0DECFE9FFDDCFEAFF31
:1017E000EF9EDECFE9FFDDCFEAFFEF8C020EE66E63
:1017F000E66ADECFE6FFDDCFE6FF050EE66EE66ABF
:1018000074EC01F00B6E060EE15E0B5005D0DECFDE
:10181000E9FFDDCFEAFFEF8CDF74D950020FE96EEC
:10182000DACFEAFFEF50020B0EE1DECFE9FFDDCFAA
:10183000EAFFEF50800B34E0DECFE9FFDDCFEAFFB7
:10184000EF50040B2DE1040134BF09D034510F0BCC
:10185000EA6A8C0FE96E000EEA22EF9208D034514A
:101860000F0BEA6A890FE96E000EEA22EF923B0E37
:101870000B6EDECFE9FFDDCFEAFF0B50EF16020E55
:10188000E66EE66ADECFE6FFDDCFE6FF050EE66E2A
:10189000E66A74EC01F00B6E060EE15E0B5008D0A8
:1018A0003B0E0B6EDECFE9FFDDCFEAFF0B50EF16EC
:1018B000030EE15C02E2E16AE552E16EE552E7CF38
:1018C000D9FF1200000191514DE1010E916F92512B
:1018D00049E1010E926F020E755D0DE16EC0E9FFE8
:1018E0006FC0EAFFEE52EF6A6EC0E9FF6FC0EAFF19
:1018F000C80EEF6E37D0750535E1886B64C0E9FF1F
:1019000065C0EAFFEE52080EEF6E64C0E9FF65C0E5
:10191000EAFF020EE926000EEA22300EEE6E040EF9
:10192000ED6E64C0E9FF65C0EAFF840EEF6E010E44
:10193000886F66C0E9FF67C0EAFFEE52080EEF6EDF
:1019400066C0E9FF67C0EAFF020EE926000EEA2240
:10195000300EEE6E040EED6E66C0E9FF67C0EAFF62
:10196000800EEF6E12000001936B946B020E755D9A
:101970001AE166C0E9FF67C0EAFFEE52080EEF6E9B
:1019800066C0E9FF67C0EAFF020EE926000EEA2200
:10199000380EEE6E040EED6E66C0E9FF67C0EAFF1A
:1019A000C80EEF6E1FD079510401365D00017A51E7
:1019B0000401375904E236C479F037C47AF035D9D6
:1019C0006EC0E9FF6FC0EAFF020EE926000EEA22B0
:1019D000380EEE6E040EED6E6EC0E9FF6FC0EAFFCA
:1019E000C80EEF6E1200800E0401305D5BE1000155
:1019F000C00E786F04013351030A34E0010A0EE08F
:101A0000030A03E00001786B4DD00001860E766F6B
:101A1000030E776F120E796F7A6B44D03251F66EE7
:101A2000F76AD890F636F736B10EF626040EF7228E
:101A30000900F5CF76F00A00F5CF77F0020E00012D
:101A4000F76A7625F66E7751F7220800F5CF79F020
:101A5000030EF76A7625F66E7751F7220800F5CF68
:101A60007AF020D0030E325D1AE23251F66EF76A38
:101A7000D890F636F736B30EF626040EF722090094
:101A8000F5CF76F00A00F5CF77F076C0F6FF77C095
:101A9000F7FF0800F5500001796F7A6B02D0000162
:101AA000786B00D01200D9CFE6FFE1CFD9FF020E4C
:101AB000E1260401386B396B30511F0B020A12E02A
:101AC000030A0DE0010A01E03BD00001788F040118
:101AD00038810001840502E10401388331D000011E
:101AE000788F2ED00001788F040134BF10D034518C
:101AF0000F0BE96EEA6AD890E936EA36680EE926F5
:101B0000000EEA22EECFDEFFEDCFDDFF0FD0345125
:101B10000F0BE96EEA6AD890E936EA366E0EE926CE
:101B2000000EEA22EECFDEFFEDCFDDFFDECFE9FFD4
:101B3000DDCFEAFFEF50040B02E0010E386F00D05A
:101B4000000178AF07D0380E766F040E776F78817A
:101B5000020E796F020EE15C02E2E16AE552E16E8B
:101B6000E552E7CFD9FF12006D98000178BF2BD066
:101B70007DAF09D0020E756F945101E1F4DE0001D2
:101B8000926B916B1FD066C0E9FF67C0EAFFEE520F
:101B9000080EEF6E66C0E9FF67C0EAFF020EE92695
:101BA000000EEA22300EEE6E040EED6E66C0E9FF06
:101BB00067C0EAFF8C0EEF6E6EC0E9FF6FC0EAFFF0
:101BC000840EEF6E31D0040130AF0DD00001010E54
:101BD000756F935101E1C7DE0001926B916B9051DB
:101BE00001E170DE21D00001020E756F66C0E9FFD1
:101BF00067C0EAFFEE52080EEF6E66C0E9FF67C0ED
:101C0000EAFF020EE926000EEA22300EEE6E040E06
:101C1000ED6E66C0E9FF67C0EAFF840EEF6E926B5F
:101C2000916B905101E14EDE1200D9CFE6FFE1CF7A
:101C3000D9FFE652080EDF6E0001795D000E7A5979
:101C40000BE279C0DFFF745103E1010E746F04D021
:101C5000740502E1020E746FDF500B6E0C6A0B50BC
:101C6000795D796F0C507A597A6F6EC0E9FF6FC059
:101C7000EAFFEE52DFCFEFFF380E826F040E836F64
:101C800078B119D0DF5016E076C0F6FF77C0F7FFC5
:101C9000762B000E77230800F550E66E82C0E9FF30
:101CA00083C0EAFF822B000E8323E552E750EF6EDC
:101CB000DF06E8D717D0DF5015E076C0E9FF77C020
:101CC000EAFF762B000E7723EF50E66E82C0E9FF25
:101CD00083C0EAFF822B000E8323E552E750EF6EAC
:101CE000DF06E9D7E552E552E7CFD9FF1200D9CF99
:101CF000E6FFE1CFD9FF020EE12664C0E9FF65C02F
:101D0000EAFFEE52EFCFDFFFDFCF0BF00B50000109
:101D10007E5D000E7F5902E27EC0DFFFDF500B6E5A
:101D20000C6A0B507E5D7E6F0C507F597F6F010EE9
:101D3000DB6ADF50F36E010EDBCFF4FFF350F45C8F
:101D400016E2010EDB50EA6A380FE96E040EEA2251
:101D5000EF50E66E7BC0E9FF7CC0EAFF7B2B000EF4
:101D60007C23E552E750EF6E010EDB2AE2D7000E2E
:101D7000D8807E55000E7F5528E266C0E9FF67C017
:101D8000EAFFEE52080EEF6E66C0E9FF67C0EAFF99
:101D9000020EE926000EEA22380EEE6E040EED6EFB
:101DA00064C0E9FF65C0EAFFEF50400B07E166C081
:101DB000E9FF67C0EAFFC80EEF6E06D066C0E9FF14
:101DC00067C0EAFF880EEF6E28D066C0E9FF67C0E3
:101DD000EAFFEE52080EEF6E66C0E9FF67C0EAFF49
:101DE000020EE926000EEA22300EEE6E040EED6EB3
:101DF00066C0E9FF67C0EAFF840EEF6E8051811173
:101E000007E005D081C0FAFF00018051F96EFADFCA
:101E100000017D9F905101E155DD020EE15C02E27F
:101E2000E16AE552E16EE552E7CFD9FF1200D9CF62
:101E3000E6FFE1CFD9FFE6520001788F020EE66E91
:101E4000E66AE66A710EE66E0F0EE66E3DEC03F092
:101E50000B6E050EE15E0B50DF6ADF500B6E0C6AF5
:101E60000C0E0B5C000E0C5810E2DF50040DF3CF8B
:101E7000E9FFF4CFEAFF000EE926040EEA22EE6A3B
:101E8000EE6AEE6AEE6ADF2AE8D76D8C020EE66E25
:101E9000E66AE66A620EE66E000EE66E3DEC03F060
:101EA0000B6E050EE15E0B506D9C0001080E6E6F0F
:101EB000040E6F6F000E646F040E656F64C066F0F1
:101EC00065C067F032C461F0615103E1100E606FCC
:101ED00013D0010EE66EE66A610EE66E000EE66E47
:101EE000010EE66EE66A74EC01F00B6E060EE15E22
:101EF0000B500001200E606FE552E552E7CFD9FF8D
:101F00001200D9CFE6FFE1CFD9FF020EE126000E85
:101F1000DE6E040EDD6EFD0EDB50E8240D6EFE0E4F
:101F2000DB50040DF3500D24040DF3CF0BF0F4CF70
:101F30000CF0D9CFE9FFDACFEAFF0B50EE260C50B8
:101F4000ED22DECFE9FFDDCFEAFFEF9EFD0EDB5095
:101F50000FE1FE0EEA6ADB34FE0BEA36E96E680E2C
:101F6000E926000EEA22DECFEEFFDDCFEDFF0ED038
:101F7000FE0EEA6ADB34FE0BEA36E96E6E0EE926E7
:101F8000000EEA22DECFEEFFDDCFEDFFDECFE9FF70
:101F9000DDCFEAFFEF9CDECFE9FFDDCFEAFF040EE5
:101FA000E926000EEA22EF8C020EE15C02E2E16A11
:101FB000E552E16EE552E7CFD9FF1200D9CFE6FF37
:101FC000E1CFD9FF020EE126FD0EDBA407D0E66AC1
:101FD000FE0EDBCFE6FF95DFE552E552FD0EDBA2FC
:101FE00008D0010EE66EFE0EDBCFE6FF8ADFE5527B
:101FF000E552FE0EDB500C6A700F0B6E0F0E0C22BA
:102000000BC0DEFF0CC0DDFFDECFE9FFDDCFEAFF56
:10201000FD0EDBCFEFFF020EE15C02E2E16AE5526A
:10202000E16EE552E7CFD9FF1200D9CFE6FFE1CF4D
:10203000D9FF020EE126FE0EDB5020E166C0E9FF6B
:1020400067C0EAFFEE52080EEF6E66C0E9FF67C098
:10205000EAFF020EE926000EEA22300EEE6E040EB2
:10206000ED6E66C0E9FF67C0EAFF8C0EEF6E6EC0D2
:10207000E9FF6FC0EAFF840EEF6E3DD0FD0EDB502E
:10208000E8240D6EFE0EDB50040DF3500D24040DFC
:10209000F3CF0BF0F4CF0CF0000E0B26040E0C2245
:1020A0000BC0DEFF0CC0DDFF840E0B6EDECFE9FF40
:1020B000DDCFEAFF0B50EF12FD0EDB50E8240D6E72
:1020C000FE0EDB50040DF3500D24010F040DF3CF71
:1020D0000BF0F4CF0CF0000E0B26040E0C220BC0FC
:1020E000DEFF0CC0DDFF840E0B6EDECFE9FFDDCF1F
:1020F000EAFF0B50EF12020EE15C02E2E16AE552E8
:10210000E16EE552E7CFD9FF1200D9CFE6FFE1CF6C
:10211000D9FF020EE126FD0EDB500FE0FE0EEA6A4B
:10212000DB34FE0BEA36E96E6E0EE926000EEA227B
:10213000EECFDEFFEDCFDDFF0ED0FE0EEA6ADB3420
:10214000FE0BEA36E96E680EE926000EEA22EECFB3
:10215000DEFFEDCFDDFFD9CFE9FFDACFEAFFEE50AA
:10216000ED1003E1F36AF46A49D0DECFE9FFDDCF79
:10217000EAFF020EE926000EEA22FB0EDBCFEEFF9D
:10218000FC0EDBCFEDFFDECFE9FFDDCFEAFFEE5245
:10219000FA0EDBCFEFFF400E0B6EDECFE9FFDDCF97
:1021A000EAFF0B50EF16880E0B6EDECFE9FFDDCF96
:1021B000EAFF0B50EF12FD0EDB500CE0FE0EEA6A58
:1021C000DB34FE0BEA36E96E6E0EE926000EEA22DB
:1021D000EF740BD0FE0EEA6ADB34FE0BEA36E96ED2
:1021E000680EE926000EEA22EF74DECF0BF0DDCF99
:1021F0000CF00BC0F3FF0CC0F4FF00D0020EE15C4A
:1022000002E2E16AE552E16EE552E7CFD9FF120042
:10221000D9CFE6FFE1CFD9FF6DA84ED0FE0EEA6A16
:10222000DB34FE0BEA36E96E6E0EE926000EEA227A
:10223000EE50EFCFEAFFE96E400EEE16EE6AEE6A60
:10224000EE6AFE0EEA6ADB34FE0BEA36E96E6E0ECB
:10225000E926000EEA22EE50EFCFEAFFE96EEE7CAF
:10226000FE0EEA6ADB34FE0BEA36E96E6E0EE926F4
:10227000000EEA22EF74400E0B6EFE0EEA6ADB34AB
:10228000FE0BEA36E96E6E0EE926000EEA22EE50EB
:10229000EFCFEAFFE96E0B50EF16FE0EEA6ADB3471
:1022A000FE0BEA36E96E6E0EE926000EEA22EE50CB
:1022B000EFCFEAFFE96EEF7CE552E7CFD9FF1200DE
:020000040030CA
:0100000024DB
:010001000CF2
:010002003FBE
:010003001EDE
:010005008179
:010006008178
:010008000FE8
:01000900C036
:01000A000FE6
:01000B00E014
:01000C000FE4
:01000D0040B2
:00000001FF
